:020000040800F2
:1000000088040020450100084D0100084F01000848
:1000100051010008530100085501000800000000CC
:100020000000000000000000000000005701000870
:1000300059010008000000005B0100085D01000894
:100040005F0100085F0100085F0100085F01000810
:100050005F0100085F0100085F0100088D010008D2
:100060005F0100085F0100085F0100085F010008F0
:100070005F0100085F0100085F0100085F010008E0
:100080005F0100085F0100085F0100085F010008D0
:100090005F0100085F0100085F0100085F010008C0
:1000A0005F0100085F0100085F0100085F010008B0
:1000B0005F0100085F0100085F0100085F010008A0
:1000C0005F0100085F0100085F0100085F01000890
:1000D0005F0100084D0800085F0100085F0100088B
:1000E0005F0100085F0100085F0100085F01000870
:1000F0005F0100085F0100085F0100085F01000860
:100100005F0100085F0100085F0100085F0100084F
:100110005F0100085F0100085F0100085F0100083F
:100120005F0100085F0100085F0100085F0100082F
:10013000DFF80CD000F018F800480047A50C0008C4
:10014000880400200648804706480047FEE7FEE78F
:10015000FEE7FEE7FEE7FEE7FEE7FEE7FEE7FEE777
:100160005907000831010008064C074D06E0E06819
:1001700040F0010394E8070098471034AC42F6D3EE
:10018000FFF7DAFF080D0008280D000810B502205F
:1001900000F01EF898B14FF48071094800F066F93C
:1001A00028B94FF4807006491031086004E04FF41C
:1001B0008070034914310860022000F003F810BD7C
:1001C0000008014001490860704700001404014024
:1001D000014600200022074B1B6803EA0102054B81
:1001E00014331B680B4013B10AB1012000E000205A
:1001F0007047000000040140002123498279002A51
:100200003AD00A46126803689A430B461A600A1DE0
:10021000126803689A430B1D1A60027911440A6838
:1002200003681A430A60184A0832126803689A433E
:10023000154B08331A601A1D126803689A43124B53
:100240000C331A604279102A0ED11A1F1268036803
:100250001A430D4B08331A601A1D126803681A43BB
:10026000094B0C331A600DE00749427911440A68C2
:1002700003681A430A6005E0027911440A680368BA
:100280009A430A6070470000000401400EB5012146
:10029000112000F05FF948208DF80B000220ADF826
:1002A000080002A90B4800F037F80121022000F0F5
:1002B00013F80220009000208DF804000C208DF827
:1002C000050001208DF806006846FFF795FF00F055
:1002D000D6F80EBD0010014030B500228B071C0F70
:1002E0000F2303FA04F20B4B8C1053F82430934382
:1002F000084C8D1044F8253023468C1053F82430D8
:100300008C07240F00FA04F42343024C8D1044F8A8
:10031000253030BD080001402DE9F041024600259E
:100320000026002000230024002791F803C00CF0D1
:100330000F0591F803C00CF0100CBCF1000F03D0B6
:1003400091F802C04CEA050591F800C0BCF1000F1D
:1003500031D0146800202BE04FF0010C0CFA00F3B0
:10036000B1F800C00CEA03069E4220D183004FF092
:100370000F0C0CFA03F7BC4305FA03FC4CEA040427
:1003800091F803C0BCF1280F06D14FF0010C0CFA14
:1003900000FCC2F814C00AE091F803C0BCF1480F99
:1003A00005D14FF0010C0CFA00FCC2F810C0401C43
:1003B0000828D1D31460B1F800C0BCF1FF0F34DDC0
:1003C000546800202EE000F1080C4FF0010808FAF4
:1003D0000CF3B1F800C00CEA03069E4221D1830061
:1003E0004FF00F0C0CFA03F7BC4305FA03FC4CEA80
:1003F000040491F803C0BCF1280F05D100F1080CEA
:1004000008FA0CF8C2F8148091F803C0BCF1480F48
:1004100007D100F1080C4FF0010808FA0CF8C2F8F7
:100420001080401C0828CED35460BDE8F081000045
:1004300008B50121242000F08DF810208DF803006C
:100440000001ADF8000003208DF802006946054860
:10045000FFF762FF0420ADF8000069460248FFF78D
:100460005BFF08BD00080140001401400246002067
:1004700093680B400BB1012000E00020704708B5E5
:100480004FF4E06000F048F807208DF800000020ED
:100490008DF801008DF8020001208DF803006846F8
:1004A00000F002F808BD000070B5002100230F2203
:1004B000C47804B3154C246804F4E064C4F5E06423
:1004C000210AC1F10403CA40447804FA03F1847894
:1004D0001440214309010E4C0678A155047804F01C
:1004E0001F050124AC4005786D11AD0005F1E02534
:1004F000C5F8004109E0047804F01F050124AC4070
:10050000044D0678761145F8264070BD0CED00E0EC
:1005100000E400E080E100E002490143024A11608A
:10052000704700000000FA050CED00E008B54FF43C
:10053000E060FFF7F1FF25208DF8000001208DF825
:1005400001008DF802008DF803006846FFF7ACFF4C
:1005500008BD000029B1064A92690243044B9A6122
:1005600004E0034A92698243014B9A61704700009C
:100570000010024030B500210022002400232D4D40
:100580006D6805F00C0121B1042905D0082923D19B
:1005900005E0294D056022E0274D05601FE0254D4F
:1005A0006D6805F47012234D6D6805F480340225E2
:1005B00005EB92421CB9214D554305600BE01D4DE2
:1005C0006D6805F400351DB11C4D5543056002E012
:1005D000194D5543056002E0174D056000BF00BF8F
:1005E000144D6D6805F0F0010909154D6B5C056847
:1005F000DD4045600F4D6D6805F4E061090A104D5E
:100600006B5C4568DD4085600A4D6D6805F460519E
:10061000C90A0B4D6B5C4568DD40C560054D6D68D2
:1006200005F44041890B074D6B5CC568B5FBF3F5DC
:10063000056130BD0010024000127A0000093D0043
:100640000C0000201C00002010B500F001F810BDC7
:100650000CB50020019000903348006840F48030D1
:100660003149086000BF3048006800F40030009055
:100670000198401C0190009818B90198B0F5A06F3E
:10068000F1D12948006800F4003010B10120009039
:1006900001E0002000900098012843D12348006821
:1006A00040F01000214908600846006820F003006F
:1006B00008600846006840F0020008601A48406878
:1006C000194948600846406848600846406840F458
:1006D000806048600846406820F47C104860084606
:1006E000406840F4E81048600846006840F08070B8
:1006F000086000BF0C48006800F000700028F9D0C6
:100700000948406820F003000749486008464068EF
:1007100040F00200486000BF0348406800F00C0051
:100720000828F9D10CBD0000001002400020024052
:10073000042808D14FF0E021096941F004014FF08D
:10074000E022116107E04FF0E021096921F0040186
:100750004FF0E0221161704710B51348006840F077
:1007600001001149086008464068104908400E49D8
:100770004860084600680E4908400B490860084672
:10078000006820F4802008600846406820F4FE00DD
:1007900048604FF41F008860FFF756FF4FF000607D
:1007A0000449086010BD0000001002400000FFF87E
:1007B000FFFFF6FE08ED00E000B585B0012144F230
:1007C0000400FFF7C7FE18208DF813004FF40070E7
:1007D000ADF8100003208DF8120004A91948FFF7A6
:1007E0009BFD04208DF813000002ADF8100004A951
:1007F0001448FFF791FD4FF4E13000900020ADF870
:100800000C000C20ADF80A000020ADF80800ADF88F
:100810000600ADF8040069460B4800F0F5F84021E9
:10082000094800F071F8012240F22551064800F015
:10083000C6F80121044800F07FF8FFF777FE05B005
:1008400000BD0000000801400038014010B540F232
:100850002551274800F089F8002847D0244800F0A7
:100860003FF9C4B23B2C08D1012022490870002076
:10087000214908702149088004E00D2C02D1012093
:100880001D4908701D480088642802DB00201B49B0
:1008900008801848007858B118480088642807DA9A
:1008A000164801880088401C144A1080144844549B
:1008B00011480078A8B100200E4908700E49087050
:1008C0000F4800783B280CD10D484078012803D10F
:1008D00000020C49086004E04FF480700949091FC8
:1008E000086040F22551024800F017F810BD0000E2
:1008F000003801400A0000200B0000200800002002
:10090000240000201408014001F40072B2F5007FB9
:1009100000D100BFCA430280704710B500220023F7
:1009200040F66A14A14200D100BF0A12012494408B
:10093000A3B2DC43048010BD21B1828942F400528D
:10094000828104E082894DF6FF731A4082817047EC
:1009500002460020B1F5007F00D100BF13880B4094
:100960000BB1012000E00020704770B50246002462
:1009700000230025002040F66A16B14200D100BFD6
:10098000C1F3421501F01F03012606FA03F3012DFE
:1009900002D19689334006E0022D02D1168A3340F7
:1009A00001E0968A33400C12012606FA04F41688F8
:1009B000344013B10CB1012000E0002070BDF0B54F
:1009C0000346002400260025002040F66A17B9429D
:1009D00000D100BF1846C1F3421401F01F060127E1
:1009E00007FA06F5012C01D10C3004E0022C01D1EC
:1009F000103000E014301AB107682F43076002E09E
:100A00000768AF430760F0BD2DE9F04786B00546A3
:100A10000E460024A24600BFA1460027B08900B1BF
:100A200000BF2F462C8A4CF6FF700440F088044328
:100A30002C82AC894EF6F3100440B088318908430B
:100A4000718908430443AC81AC8A4FF6FF400440EF
:100A5000B0890443AC8201A8FFF78CFD1F48874290
:100A600002D1DDF810A001E0DDF80CA0A88900F4A7
:100A7000004040B10AEBCA0000EB0A10316849009F
:100A8000B0FBF1F807E00AEBCA0000EB0A1031688E
:100A90008900B0FBF1F86420B8FBF0F004012009F4
:100AA000642101FB1089A88900F4004040B1322084
:100AB00000EBC900B0FBF1F000F00700044308E0D0
:100AC000322000EB09106421B0FBF1F000F00F00C0
:100AD00004432C8106B0BDE8F087000000380140D7
:100AE00001468888C0F308007047C1F3080282807D
:100AF000704700000FB4054B10B503A9044A0298D3
:100B000000F017F810BC5DF814FB0000810C000821
:100B10002000002002E008C8121F08C1002AFAD1F4
:100B200070477047002001E001C1121F002AFBD16D
:100B300070472DE9F84F99469246884605460027AA
:100B400006E025280AD051464A4690476D1C7F1C76
:100B500028780028F5D13846BDE8F88F002315F82D
:100B6000011F18462E2915D115F8011F04232A2923
:100B70000DD06FF02F022978A1F13004092C09D88B
:100B800000EB800002EB400008446D1CF3E758F8CE
:100B9000040B6D1C2A78002ADDD0632A07D0732A43
:100BA0000FD0104651464A4690477F1C2AE018F85D
:100BB000042B8DF8002000218DF801106E460121D4
:100BC00003E058F8046B4FF0FF315A074FF0000470
:100BD00001D409E0641C84420BDA8C42FADB325DFA
:100BE000002AF7D105E0641C8C42FCDB305D002854
:100BF000F9D1274404E016F8010B51464A469047C4
:100C0000641EF8D26D1CA3E710B504466FF0040013
:100C1000FFF78EFDE11704EB5171C1F3C701074ADD
:100C200011701046007800EB4001C1EBC0104FF688
:100C3000FF7101EAC0000249088010BD04000020D5
:100C40000600002001460D4A12884A434FF0E02377
:100C50005A6100229A6101221A6100BF4FF0E0221E
:100C6000106900F001021AB100F48032002AF5D0B8
:100C700000224FF0E0231A615A61704706000020FD
:100C800070B504460D46E1B20548FFF72EFF00BFE0
:100C900040210348FFF75CFE0128F9D1204670BDD2
:100CA000003801404820FFF7AFFFFFF7C1FBFFF717
:100CB000EDFAFFF781FD13E004200A4908604FF4C4
:100CC000FA70FFF7BFFF04200649091D08604FF4C2
:100CD000FA70FFF7B7FF0448016804A0FFF70AFFA6
:100CE000EAE7000010140140000000202573000016
:100CF00073797374656D20746F20737461727420DE
:100D00007570200D0A000000280D0008000000206A
:100D100024000000140B00084C0D000824000020E3
:100D200064040000240B0008F00C00080000000020
:100D3000000000000000000001020304010203049F
:0C0D400006070809020406080000000075
:0400000508000145A9
:00000001FF
