:020000040800F2
:1000000098040020450100084D0100084F01000838
:1000100051010008530100085501000800000000CC
:100020000000000000000000000000005701000870
:1000300059010008000000005B0100085D01000894
:100040005F0100085F0100085F0100085F01000810
:100050005F0100085F0100085F0100081D0600083D
:100060005F0100085F0100085F0100085F010008F0
:100070005F0100085F0100085F0100085F010008E0
:100080005F0100085F0100085F0100085F010008D0
:100090005F0100085F0100085F0100085F010008C0
:1000A0005F0100085F0100085F0100085F010008B0
:1000B0005F0100085F0100085F0100085F010008A0
:1000C0005F0100085F0100085F0100085F01000890
:1000D0005F0100080D0D00085F0100085F010008C6
:1000E0005F0100085F0100085F0100085F01000870
:1000F0005F0100085F0100085F0100085F01000860
:100100005F0100085F0100085F0100085F0100084F
:100110005F0100085F0100085F0100085F0100083F
:100120005F0100085F0100085F0100085F0100082F
:10013000DFF80CD000F02EF8004800472914000822
:10014000980400200648804706480047FEE7FEE77F
:10015000FEE7FEE7FEE7FEE7FEE7FEE7FEE7FEE777
:10016000190C00083101000830B50B46014600208B
:100170002022012409E021FA02F59D4205D303FA69
:1001800002F5491B04FA02F52844151EA2F10102EA
:10019000F1DC30BD064C074D06E0E06840F001039D
:1001A00094E8070098471034AC42F6D3FFF7C4FF39
:1001B000241500084415000821B1826842F00102AC
:1001C000826003E0826822F001028260704721B100
:1001D000826842F48072826003E0826822F4807256
:1001E00082607047014600208A6802F004020AB16A
:1001F000012000E00020704730B5024600200023B7
:1002000050680F4C20400D790C6844EA05242043C7
:10021000506090680B4C2040D1E902542C434D793A
:1002200044EA450420439060D06A20F470000C7CBE
:10023000641EE4B2234340EA0350D06230BD0000A4
:10024000FFFEF0FFFDF7F1FFF0B504460D4600207C
:100250000021092D11DDE068A5F10A0606EB46072D
:10026000072606FA07F18843A5F10A0606EB4606BB
:1002700003FA06F10843E0600CE0206905EB45074E
:10028000072606FA07F1884305EB450603FA06F14F
:1002900008432061072A0FDA606B561E06EB8607BB
:1002A0001F2606FA07F18843561E06EB860605FA56
:1002B00006F10843606322E00D2A0FDA206BD61F97
:1002C00006EB86071F2606FA07F18843D61F06EBC2
:1002D000860605FA06F10843206310E0E06AA2F101
:1002E0000D0606EB86071F2606FA07F18843A2F1E2
:1002F0000D0606EB860605FA06F10843E062F0BD3E
:10030000816841F008018160704721B1826842F440
:10031000A002826003E0826822F4A002826070473B
:10032000816841F0040181607047000000B585B02C
:10033000002000908DF8040001208DF805004FF496
:10034000602002900020039001208DF81000694683
:100350001648FFF751FF4FF4404000F047FB0523DC
:1003600001220B211148FFF76FFF01210F48FFF712
:100370002EFF01210D48FFF71FFF0C48FFF7C0FFBC
:1003800000BF0A48FFF72EFF0028FAD10748FFF701
:10039000C7FF00BF0548FFF725FF0028FAD101215C
:1003A0000248FFF7B2FF05B000BD00000024014085
:1003B00008B501210C2000F025FBFF20ADF800005E
:1003C00010208DF8030003208DF8020069460648CE
:1003D00000F0EEF94FF4E070ADF800006946034814
:1003E00000F0E6F908BD000000080140000C0140E3
:1003F00008B50121084600F005FB01214FF4047007
:1004000000F000FB0220ADF8000000208DF8030092
:1004100003208DF802006946014800F0C9F908BDC3
:100420000010014000B58BB0114800F033F81148BE
:1004300000901148019000200290012003900020BC
:10044000049005904FF48070069080000790202063
:1004500008900002099000200A906946044800F0C4
:10046000BFF80121024800F009F80BB000BD000000
:10047000080002404C2401401400002021B1026811
:1004800042F00102026004E002684FF6FE731A4077
:100490000260704701684FF6FE7211400160002152
:1004A000016041608160C1604B49884208D14A497E
:1004B0000839496841F00F01474A083A51608AE01B
:1004C00045491431884208D143490839496841F007
:1004D000F001414A083A51607DE03F4928318842A5
:1004E00008D13D490839496841F470613A4A083AEF
:1004F000516070E038493C31884208D136490839AA
:10050000496841F47041344A083A516063E0324925
:100510005031884208D130490839496841F4702186
:100520002D4A083A516056E02B496431884208D17F
:1005300029490839496841F47001274A083A51604D
:1005400049E025497831884208D12349083949686A
:1005500041F07061204A083A51603CE01F498842EE
:1005600006D1011F096841F00F01021F116032E03E
:100570001A491431884208D11849091F096841F005
:10058000F001164A121F116025E0144928318842F3
:1005900008D11249091F096841F470610F4A121FFE
:1005A000116018E00D493C31884208D10B49091F00
:1005B000096841F47041094A121F11600BE00749B4
:1005C0005031884207D10549091F096841F470215B
:1005D000024A121F116070470800024008040240DE
:1005E00010B50022026847F6F0739A430C6A8B68D4
:1005F00023430C6923434C6923438C692343CC690F
:1006000023434C6A23438C6A23431A430260CB681A
:1006100043600B6883604B68C36010BD10B5022057
:1006200000F022F8B0B14FF480710B4800F06AF985
:1006300040B909481030006840F480700649103114
:10064000086004E04FF48070034914310860022010
:1006500000F004F810BD00000008014001490860E6
:100660007047000014040140014600200022074B9F
:100670001B6803EA0102054B14331B680B4013B1DE
:100680000AB1012000E00020704700000004014092
:10069000002123498279002A3AD00A461268036869
:1006A0009A430B461A600A1D126803689A430B1D91
:1006B0001A60027911440A6803681A430A60184AEA
:1006C0000832126803689A43154B08331A601A1DE2
:1006D000126803689A43124B0C331A604279102A4D
:1006E0000ED11A1F126803681A430D4B08331A60A3
:1006F0001A1D126803681A43094B0C331A600DE087
:100700000749427911440A6803681A430A6005E000
:10071000027911440A6803689A430A60704700002E
:10072000000401400EB50121112000F06BF94820B2
:100730008DF80B000220ADF8080002A90B4800F06C
:1007400037F80121022000F013F802200090002069
:100750008DF804000C208DF8050001208DF80600AE
:100760006846FFF795FF00F0D6F80EBD0010014077
:1007700030B500228B071C0F0F2303FA04F20B4B3A
:100780008C1053F824309343084C8D1044F82530D6
:1007900023468C1053F824308C07240F00FA04F4FD
:1007A0002343024C8D1044F8253030BD0800014031
:1007B0002DE9F041024600250026002000230024F8
:1007C000002791F803C00CF00F0591F803C00CF05E
:1007D000100CBCF1000F03D091F802C04CEA0505E3
:1007E00091F800C0BCF1000F31D0146800202BE05C
:1007F0004FF0010C0CFA00F3B1F800C00CEA03064C
:100800009E4220D183004FF00F0C0CFA03F7BC433B
:1008100005FA03FC4CEA040491F803C0BCF1280F6C
:1008200006D14FF0010C0CFA00FCC2F814C00AE02B
:1008300091F803C0BCF1480F05D14FF0010C0CFA40
:1008400000FCC2F810C0401C0828D1D31460B1F8D5
:1008500000C0BCF1FF0F34DD546800202EE000F131
:10086000080C4FF0010808FA0CF3B1F800C00CEACC
:1008700003069E4221D183004FF00F0C0CFA03F7C0
:10088000BC4305FA03FC4CEA040491F803C0BCF134
:10089000280F05D100F1080C08FA0CF8C2F81480F2
:1008A00091F803C0BCF1480F07D100F1080C4FF0DC
:1008B000010808FA0CF8C2F81080401C0828CED3B2
:1008C0005460BDE8F081000008B50121242000F04B
:1008D00099F810208DF803000001ADF80000032006
:1008E0008DF8020069460548FFF762FF0420ADF865
:1008F000000069460248FFF75BFF08BD00080140A1
:10090000001401400246002093680B400BB1012007
:1009100000E00020704708B54FF4E06000F048F8B0
:1009200007208DF8000000208DF801008DF80200EE
:1009300001208DF80300684600F002F808BD0000B1
:1009400070B5002100230F22C47804B3154C24682D
:1009500004F4E064C4F5E064210AC1F10403CA4070
:10096000447804FA03F184781440214309010E4CC1
:100970000678A155047804F01F050124AC400578E1
:100980006D11AD0005F1E025C5F8004109E00478DE
:1009900004F01F050124AC40044D0678761145F89B
:1009A000264070BD0CED00E000E400E080E100E0D6
:1009B00002490143024A1160704700000000FA0535
:1009C0000CED00E008B54FF4E060FFF7F1FF2520E3
:1009D0008DF8000001208DF801008DF802008DF8DF
:1009E00003006846FFF7ACFF08BD00000146002089
:1009F000034A506820F440400843506070470000AC
:100A00000010024029B1064A92690243044B9A61E0
:100A100004E0034A92698243014B9A6170470000E7
:100A20000010024030B500210022002400232D4D8B
:100A30006D6805F00C0121B1042905D0082923D1E6
:100A400005E0294D056022E0274D05601FE0254D9A
:100A50006D6805F47012234D6D6805F4803402252D
:100A600005EB92421CB9214D554305600BE01D4D2D
:100A70006D6805F400351DB11C4D5543056002E05D
:100A8000194D5543056002E0174D056000BF00BFDA
:100A9000144D6D6805F0F0010909154D6B5C056892
:100AA000DD4045600F4D6D6805F4E061090A104DA9
:100AB0006B5C4568DD4085600A4D6D6805F46051EA
:100AC000C90A0B4D6B5C4568DD40C560054D6D681E
:100AD00005F44041890B074D6B5CC568B5FBF3F528
:100AE000056130BD0010024000127A0000093D008F
:100AF000160000202600002010B500F001F810BDFF
:100B00000CB50020019000903348006840F480301C
:100B10003149086000BF3048006800F400300090A0
:100B20000198401C0190009818B90198B0F5A06F89
:100B3000F1D12948006800F4003010B10120009084
:100B400001E0002000900098012843D1234800686C
:100B500040F01000214908600846006820F00300BA
:100B600008600846006840F0020008601A484068C3
:100B7000194948600846406848600846406840F4A3
:100B8000806048600846406820F47C104860084651
:100B9000406840F4E81048600846006840F0807003
:100BA000086000BF0C48006800F000700028F9D011
:100BB0000948406820F0030007494860084640683B
:100BC00040F00200486000BF0348406800F00C009D
:100BD0000828F9D10CBD000000100240002002409E
:100BE00010B5FFF705FCFFF71DFCFFF79FFB10BDDD
:100BF000042808D14FF0E021096941F004014FF0C9
:100C0000E022116107E04FF0E021096921F00401C1
:100C10004FF0E0221161704710B51348006840F0B2
:100C200001001149086008464068104908400E4913
:100C30004860084600680E4908400B4908600846AD
:100C4000006820F4802008600846406820F4FE0018
:100C500048604FF41F008860FFF74EFF4FF00060C0
:100C60000449086010BD0000001002400000FFF8B9
:100C7000FFFFF6FE08ED00E000B585B0012144F26B
:100C80000400FFF7BFFE18208DF813004FF400702A
:100C9000ADF8100003208DF8120004A91948FFF7E1
:100CA00087FD04208DF813000002ADF8100004A9A0
:100CB0001448FFF77DFD4FF4E13000900020ADF8BF
:100CC0000C000C20ADF80A000020ADF80800ADF8CB
:100CD0000600ADF8040069460B4800F0F7F8402123
:100CE000094800F073F8012240F22551064800F04F
:100CF000C8F80121044800F081F8FFF763FE05B051
:100D000000BD0000000801400038014010B540F26D
:100D10002551284800F08BF800284AD0254800F0DB
:100D200041F9C4B23B2C08D10120234908700020AE
:100D3000224908702249088004E00D2C02D10120CC
:100D40001E4908701E480088642802DB00201C49E8
:100D500008801948007858B119480088642807DAD3
:100D6000174801880088401C154A108015484454D3
:100D700012480078C0B100200F4908700F49087070
:100D8000104800783B280FD10E484078012803D145
:100D900000020D49086007E00B48001F006840F49E
:100DA00080700949091F086040F22551014800F090
:100DB00016F810BD0038014010000020110000207E
:100DC0000E000020300000201408014001F40072E1
:100DD000B2F5007F00D100BFCA430280704710B552
:100DE0000022002340F66A14A14200D100BF0A127B
:100DF00001249440A3B2DC43048010BD21B1828958
:100E000042F40052828104E082894DF6FF731A4059
:100E10008281704702460020B1F5007F00D100BFFB
:100E200013880B400BB1012000E00020704770B523
:100E30000246002400230025002040F66A16B14235
:100E400000D100BFC1F3421501F01F03012606FACD
:100E500003F3012D02D19689334006E0022D02D121
:100E6000168A334001E0968A33400C12012606FAB6
:100E700004F41688344013B10CB1012000E00020C6
:100E800070BDF0B50346002400260025002040F682
:100E90006A17B94200D100BF1846C1F3421401F0ED
:100EA0001F06012707FA06F5012C01D10C3004E0DA
:100EB000022C01D1103000E014301AB107682F4322
:100EC000076002E00768AF430760F0BD2DE9F04717
:100ED00086B005460E460024A24600BFA146002764
:100EE000B08900B100BF2F462C8A4CF6FF70044039
:100EF000F08804432C82AC894EF6F3100440B0888D
:100F000031890843718908430443AC81AC8A4FF6A8
:100F1000FF400440B0890443AC8201A8FFF782FD82
:100F20001F48874202D1DDF810A001E0DDF80CA0D7
:100F3000A88900F4004040B10AEBCA0000EB0A1097
:100F400031684900B0FBF1F807E00AEBCA0000EB9A
:100F50000A1031688900B0FBF1F86420B8FBF0F0AA
:100F600004012009642101FB1089A88900F40040D4
:100F700040B1322000EBC900B0FBF1F000F00700F7
:100F8000044308E0322000EB09106421B0FBF1F0CB
:100F900000F00F0004432C8106B0BDE8F08700008C
:100FA0000038014001468888C0F308007047C1F34B
:100FB00008028280704700000FB4054B10B503A9EA
:100FC000044A029800F018F810BC5DF814FB000009
:100FD000E91100082C00002002E008C8121F08C117
:100FE000002AFAD170477047002001E001C1121FAA
:100FF000002AFBD1704700002DE9FF4F89B09B46C6
:101000000446002506E025280BD05A460B99904748
:10101000641C6D1C20780028F5D10DB02846BDE871
:10102000F08F0027B8460122474900E0074314F833
:10103000013F203B02FA03F00842F7D120782E2826
:1010400019D114F8010F47F004072A280ED06FF0C9
:101050002F022078A0F1300109290CD808EB880173
:1010600002EB410100EB0108641CF2E70A98641CE2
:1010700050F8048B0A9020780028CED0642808D03D
:10108000692806D075281ED05A460B9990476D1CCA
:1010900058E00A994FF00A0901C90A91002802DABA
:1010A00040422D2102E0390504D52B218DF8201076
:1010B000012103E0F90704D02021F7E78A4608AEB2
:1010C0000DE00021FAE70A994FF00A0901C90A91D7
:1010D000F7E74946FFF748F8303106F8011D0028C8
:1010E000F7D1ADEB060000F12009780701D44FF0ED
:1010F0000108C84502DDA8EB090000E00020804699
:10110000002706E008A85A46C05D0B9990476D1C61
:101110007F1C5745F6DB04E030205A460B99904778
:101120006D1CB8F10001A8F10108F5DC05E016F826
:10113000010B5A460B9990476D1CB9F10001A9F1BA
:101140000109F4DC641C65E70928010010B50446B8
:101150006FF00400FFF74CFDE11704EB5171C1F390
:10116000C701074A11701046007800EB4001C1EB3F
:10117000C0104FF6FF7101EAC0000249088010BD9F
:101180000A0000200C00002001460D4A12884A4344
:101190004FF0E0235A6100229A6101221A6100BFD8
:1011A0004FF0E022106900F001021AB100F4803221
:1011B000002AF5D000224FF0E0231A615A617047EF
:1011C0000C00002070B505460C46284600F068F972
:1011D000204600F07DF970BD10B50248008800F08F
:1011E00015F810BD1400002070B504460D46E1B29C
:1011F0000548FFF7DCFE00BF40210348FFF70AFE69
:101200000128F9D1204670BD003801402DE9F04792
:101210000746FFB2642097FBF0FA97FBF0F100FB62
:1012200011700A2190FBF1F80A2097FBF0F090FB77
:10123000F1F201FB1209BAF10A0F1AD2DFE80AF043
:101240000507090B0D0F11131517302413E0312476
:1012500011E032240FE033240DE034240BE0352478
:1012600009E0362407E0372405E0382403E0392478
:1012700001E0302400BF00BFB8F10A0F1AD2DFE846
:1012800008F00507090B0D0F11131517302513E092
:10129000312511E032250FE033250DE034250BE038
:1012A000352509E0362507E0372505E0382503E038
:1012B000392501E0302500BF00BFB9F10A0F1AD26D
:1012C000DFE809F00507090B0D0F1113151730267C
:1012D00013E0312611E032260FE033260DE03426EC
:1012E0000BE0352609E0362607E0372605E03826EC
:1012F00003E0392601E0302600BF00BF21468520EB
:10130000FFF760FF29468620FFF75CFF3146872004
:10131000FFF758FFBDE8F0872DE9F047044642F299
:10132000107094FBF0F086B24FF47A7094FBF0F0FA
:101330000A2190FBF1F201FB120087B2642094FBBA
:10134000F0F090FBF1F201FB12001FFA80F864202C
:1013500094FBF0F100FB11400A2190FBF1F01FFA21
:1013600080F90A2094FBF0F100FB114085B214488B
:101370000068815D8520FFF725FF11480068C15D89
:101380008620FFF71FFF0E48006810F8081087201E
:10139000FFF718FF0A48006810F809108820FFF7C7
:1013A00011FF07480068415D8920FFF70BFF0448E3
:1013B0000068415D8920FFF705FFBDE8F087000068
:1013C0000400002010B50A20FFF7DEFE382000F0F0
:1013D00067F80F2000F064F8062000F061F80120A3
:1013E00000F05EF8902000F05BF8802000F058F8E4
:1013F000542000F06DF8812000F052F8652000F0D4
:1014000067F8822000F04CF86D2000F061F883202E
:1014100000F046F8702000F05BF8842000F040F8FF
:101420003A2000F055F810BD4820FFF78FFEFFF777
:101430004BFAFFF777F9FFF71FFCFEF7B9FFFFF74D
:10144000C1FFFFF7CDFB20E01048006840F004002A
:101450000E4908604FF4FA70FFF796FE04200B491E
:10146000091D08604FF4FA70FFF78EFEFFF7B4FE17
:1014700007480068074908800846018806A0FFF76A
:101480009BFD04480088FFF747FFDDE7101401408B
:101490004C2401400800002025640D0A00000000D3
:1014A00010B50446402008490860800008600748DD
:1014B00004600520FFF768FE80200349091F0860CB
:1014C000091D086010BD0000140C01400C0801400B
:1014D00010B504464020084908608000091D0860D6
:1014E000064804600520FFF74FFE8020024908608F
:1014F000091D086010BD0000100C01400C080140DF
:1015000073797374656D20746F20737461727420C5
:101510007570200D0A000000303132333435363713
:101520003839000044150008000000203000000099
:10153000D80F00087415000830000020680400006F
:10154000E80F00080015000818150008000000004A
:101550000000000000000000000000000000010288
:101560000304010203040607080902040608000038
:041570000000000077
:0400000508000145A9
:00000001FF
